:100000000C9490010C945F220C9438220C941122D1
:100010000C94EA210C94B8010C94B8010C94C321FF
:100020000C94B8010C946F210C9486220C94F52248
:100030000C94B8010C94B8010C94B8010C94B8015C
:100040000C94B8010C94B8010C94B8010C94B8014C
:100050000C94B8010C94B8010C94B8010C9479215B
:100060000C94B8010C940B250C94E5240C94B80165
:100070000C94B8010C94B8010C94B8010C94B8011C
:100080000C9492240C94B8010C94B8010C94B8010F
:100090000C9450200C94B8010C94B8010C94B80145
:1000A0000C94B8010C94B8010C94B8010403090431
:1000B00012011001EF0201405E04890200010102F9
:1000C0000301556E6B6E6F776E0055534220494F9A
:1000D00020426F61726400170040000116000800A2
:1000E0000115000020001400800001130010000121
:1000F00012000040001100000101670020000166AD
:1001000000008000170000100116000020011500FB
:1001100000400114000080011300010002270008C4
:1001200000023700040002260040000236002000D2
:1001300002460010000265000800003500010001C1
:1001400034000200013300040001450000020151A7
:1001500000000201440000040155000004014300B6
:100160000008015400000801210080000031000057
:100170000200410000080076000001007700000442
:1001800000520000100063004000006400100000F6
:10019000620020000010004000000001020000800A
:1001A0000004000000200400000002010000001014
:1001B000010000000408000040000200020080046A
:1001C000000100000000240027002A002D0030005C
:1001D00000000000250028002B002E003100000048
:1001E00000002300260029002C002F000404040432
:1001F00004030405020202020403020202020606CC
:1002000006060606040402020204040408020110A1
:10021000408040102040804080080204018040203F
:100220001002011080102040402000000002000950
:100230000F0000030401000C00000000000000009B
:10024000000000000000000000120110010000008A
:10025000405E0489022101000000010006FFFFFF4B
:10026000FF0014FF00FFFFFFFFFFFFFFFFFFFFFF87
:10027000FFFFFFFFFF1042000180011A16FFFFFF82
:10028000FFFFFFFFFF1042000101021406FFFFFF06
:10029000FFFFFFFFFF09000009000F000000000042
:1002A000000009000009000F00001D1DFF000006EE
:1002B000200002010006300A20000300011405207E
:1002C000000F060520030100000008010000028065
:1002D00000060000000009000009000F00000000F7
:1002E000FF00EB000800000000000000010FC0004C
:1002F000000C1E00000C1F0000004008000FC00092
:100300000008C00001020308090A0B2008100100C0
:10031000000C0000000C1B01030000000840A72592
:1003200011241FBECFEFDAE0DEBFCDBF11E0A0E0A9
:10033000B1E0E6EDF4E602C005900D92A63BB107F0
:10034000D9F729E0A6EBB1E001C01D92AD35B207A7
:10035000E1F711E0C0E9D1E004C02197FE010E945D
:10036000A531CF38D107C9F70E94DD260C94693238
:100370000C9400008CBD9DBD0895FC018489958975
:100380002181222371F02085262359F09B01282307
:100390003923232B61F4682B792B758B648B81E0D7
:1003A00008956095709568237923758B648B80E040
:1003B0000895FC0181818823A9F06131710548F419
:1003C000858D90E06823792381E0672B59F480E0E4
:1003D0000895868D8617170631F0978D81E0961760
:1003E0001706A9F7089581E0FDCF0F931F93CF93D0
:1003F000DF93EC018B010E94D90198A1811114C0F7
:100400009017110609F418A289A18017110609F4A2
:1004100019A28AA18017110609F41AA280E0DF91BF
:10042000CF911F910F91089590171106B9F329A14B
:100430002017110699F38AA18017110679F39923E1
:1004400059F0222361F08111E9CF82E090E0C80FDA
:10045000D91F08A381E0E3CF90E080E0F8CF81E0EE
:1004600090E0F5CFFC0181A50895FC0184810895F9
:1004700080E0089580919B0290919A02891B990BCC
:10048000089581E0693009F080E00895FC018585D8
:100490000895FC018485089581E0089580E0089521
:1004A000DF92EF92FF920F931F93CF93DF93EC01B4
:1004B00085E0E62EF12CFE01869FE00DF11D112452
:1004C000918596FF24C0192F177001E085E0D82E82
:1004D0008FEF800F8F3008F001E0602F70E0062F63
:1004E000D69EF001D79EF00D1124EC0FFD1F8185E3
:1004F0008695869586958770181701F16F5F7F4FF7
:10050000603168F38E81811302C011501E8385E033
:100510008E9DF0018F9DF00D1124EC0FFD1F1186B3
:1005200081E0828713862296D087C783DF91CF919F
:100530001F910F91FF90EF90DF900895CE010E94E0
:100540005002C6CFFC0120812EBD9B0121503109F4
:1005500041F051810DB407FEFDCF4EB55EBD419314
:10056000F5CF61507109860F971F0DB407FEFDCFBF
:100570002EB5FC01208308952E9A08952E98089593
:10058000FC0121E0613499F49C01255B3F4F61E05F
:10059000AC014E5F5F4F16866787108A5587448788
:1005A00035962E173F07B9F7FC0116820895368558
:1005B000631729F02F5F35962031C9F70895622F10
:1005C0000C945002CF93DF93FC0167FD12C02830DA
:1005D00080F4442319F08681873059F0EF01A1E0BF
:1005E000B0E08E85882349F111962596A031B1059A
:1005F000C1F780E018C085E08A9FE0018B9FD00D95
:100600001124CE0FDF1F442389F081E4898786817E
:100610008F5F868325E02A9FC0012B9F900D1124B8
:10062000E80FF91F8185DF91CF91089581E08987D7
:10063000F1CF2770687B622B0FC06623E1F26770F1
:10064000660F660F660F4423A1F3606486818F5F97
:1006500086838770687F682B25E02A9FC0012B9FC7
:10066000900D1124E80FF91F6187862FDCCFFC0164
:1006700021E0611102C0079608953685631739F0AD
:100680002F5F35962031C9F790E080E008950796F6
:1006900035E0239F800D911D11240895DF92EF9284
:1006A000FF920F931F93CF93DF93662391F1D62E82
:1006B0007C01EC01C95ADF4F66FF34C010E000E056
:1006C00089919991009701F1DC01ED91FC910680EF
:1006D000F781E02D0995D81217C0E801CC0FDD1F76
:1006E000CE0DDF1DC95ADF4F88819981DC01ED9164
:1006F000FC910280F381E02DDF91CF911F910F914A
:10070000FF90EF90DF9009940F5F1F4F00311105AC
:10071000B9F680E0DF91CF911F910F91FF90EF909C
:10072000DF9008958E01D0E0C0E0F80181919191B1
:100730008F01009749F0DC01ED91FC910084F18577
:10074000E02D09958D1551F22196C031D10569F73B
:10075000E0CF0F931F93CF93DF93EC011C851770AD
:10076000110F110F110F01E08A819B812E85201737
:1007700048F0202F2770187F122B612F0E944E0304
:100780000F5FF2CFDC01ED91FC910480F581E02D4B
:100790006C8509958C85813439F4EA81FB81E958AF
:1007A000FF4F8081846080831C861D861E861F8685
:1007B000188A198A1A8A1B8A80E0DF91CF911F91CB
:1007C0000F9108950F931F93CF93DF932115310558
:1007D00099F0E901042F162F0E943703FC0186EDE2
:1007E000309729F01283D183C083038380E0DF91A7
:1007F000CF911F910F91089588EDF9CF0895DC01F5
:10080000ED91FC910680F781E02D099408950F93F6
:100810001F93CF93DF9300D0CDB7DEB7182F062FED
:1008200080E591E00E94BA010E94BE021260198325
:100830000A8362E070E0CE0101960E94A2020E944B
:10084000BC020F900F90DF91CF911F910F910895EF
:100850000F931F93CF93DF93D82FC62F8A0180E584
:1008600091E00E94BA010E94BE02D260DEBDF80192
:100870008C2F882339F00DB407FEFDCF91919EBDDA
:100880008150F7CFC00FD12FD11D0DB407FEFDCF82
:100890000E94BC02CE01DF91CF911F910F9108956C
:1008A0008EBD00000DB407FEFDCF8EB50895CF9329
:1008B000C82F80E591E00E94BA010E94BE028C2FF1
:1008C0000E94500480E00E945004C82F0E94BC0285
:1008D0008C2FCF91089588EF0E945704807C80343C
:1008E000B1F018F4882301F10895803819F0803CA4
:1008F000C9F0089588ED0E94570481FD0DC069EC90
:1009000088ED0E94070482E080931406089588ED24
:100910000E94570481FDF3CF6BEC88ED0E94070421
:1009200083E0F2CF81E0F0CF61ED88ED0E94070413
:10093000109214060895CF9388EC0E945704C0E0EB
:1009400085FF03C00E946B04C0E26C2F88EC0E94FC
:1009500007048C2FCF910895AF92BF92CF92DF9270
:10096000EF92FF920F931F93CF93DF93EC01B62E7C
:10097000A42E69010E9437037C0186EDE114F10485
:1009800009F447C0D701ED91FC91119787ED30979D
:1009900009F43FC013969C9180E0981731F02081B4
:1009A000A21629F034968F5FF8CFF0E0E0E0D60190
:1009B000ED93FC938BED309761F12381269526957D
:1009C000203108F02FE081E090E0A0E0B0E004C02A
:1009D000880F991FAA1FBB1F2A95D2F70197F8010C
:1009E000918380836B2D80EE0E94070488ED0E9426
:1009F0005704D70114969C91682F697F992329F099
:100A0000C958DF4F68816260682B88ED0E94070437
:100A100080E0DF91CF911F910F91FF90EF90DF90D9
:100A2000CF90BF90AF90089520917402260F332786
:100A3000331F21323105ECF420913B06FC0190E09C
:100A400080E0243069F082E00895A0917402219141
:100A5000AC014E5A5D4FA40FB52FB11D2C930196DA
:100A6000861798F380917402680F6093740280E097
:100A7000089581E00895E0914F02F091500230977F
:100A800029F0109242061092640609940895CF93BB
:100A9000DF93EC01E0914D02F0914E023097F1F0BE
:100AA00090919A0280919B029817C0F090E0292FB4
:100AB00030E02617370754F4DE01A20FB31F4C9124
:100AC000235D3D4FD9014C939F5FF1CF10929A0265
:100AD00060939B02CB01DF91CF910994DF91CF917D
:100AE00008950895E0919A0280919B02E81730F4EE
:100AF000F0E0E35DFD4F808190E008958FEF9FEF80
:100B0000089590919A0280919B022FEF3FEF9817E2
:100B100048F4E92FF0E0E35DFD4F208130E09F5F76
:100B200090939A02C9010895CF92DF92EF92FF92BB
:100B30000F931F93CF93DF937C01CB018A01209108
:100B40004106222389F0EB016B01C40ED51ECC15A2
:100B5000DD0569F06991D701ED91FC910190F0817B
:100B6000E02DC7010995F3CF642F0E941405C80139
:100B7000DF91CF911F910F91FF90EF90DF90CF9079
:100B80000895CF93DF931F92CDB7DEB7698320918D
:100B900041062223F9F020916406203258F021E02A
:100BA00030E0FC013383228390E080E00F90DF91FE
:100BB000CF91089580914206E82FF0E0ED5BF94F68
:100BC000998190838F5F809342068093640681E0D1
:100BD00090E0ECCF61E0CE0101960E941405F7CFC2
:100BE00080919C0290919D0246E050E062EB72E0A1
:100BF0008130910531F0029741F446E150E062ED19
:100C000072E084E698E00C94940560E084E698E055
:100C10000C94C10581508F3008F047C0E82FF0E0F8
:100C2000EC5EF94F0C94A5313106350623062906F2
:100C30002D0655065506550638063E06420646065A
:100C40004C0655065006809180008F778093800077
:100C50000895809180008F7DF9CF80918000877FFB
:100C6000F5CF84B58F7784BD089584B58F7DFBCF94
:100C7000809190008F7780939000089580919000EC
:100C80008F7DF9CF80919000877FF5CF8091C00054
:100C90008F778093C00008958091C0008F7DF9CF39
:100CA0008091C200877F8093C2000895CF93DF9325
:100CB000282F30E0F901E65DFD4F8491F901E55FF1
:100CC000FD4FD491F901E451FE4FC491CC23A1F022
:100CD00081110E940A06EC2FF0E0EE0FFF1FE25296
:100CE000FE4FA591B491EC91ED2381E090E009F4E1
:100CF00080E0DF91CF91089580E090E0FACF1F93DC
:100D0000CF93DF93282F30E0F901E65DFD4F84910A
:100D1000F901E55FFD4FD491F901E451FE4FC49113
:100D2000CC23A9F0162F81110E940A06EC2FF0E0C7
:100D3000EE0FFF1FE053FE4FA591B4918FB7F894CB
:100D4000EC91111108C0D095DE23DC938FBFDF91A9
:100D5000CF911F910895DE2BF8CF10923B0681E0D2
:100D600080933A061092150661E082E00E947F06A9
:100D700061E083E00E947F06E9EBF0E080818E7FF6
:100D8000808380818D7F808388E48093B80085E4B0
:100D90008093BC000895CF93DF9391E0909351022C
:100DA0008823B9F0C091B800D091BA008091BC00FE
:100DB0008A7B8093BC0060E082E00E947F0660E056
:100DC00083E00E947F060E94AD06D093BA00C093D4
:100DD000B800DF91CF910895CF93DF9390E0FC01AD
:100DE000E55FFD4F249184519E4FFC01849188233F
:100DF000D1F090E0880F991FFC01EE53FE4FA591B2
:100E0000B491FC01E053FE4FC591D491623071F46E
:100E10009FB7F8943C91822F809583238C93E8812F
:100E20002E2B28839FBFDF91CF9108958FB7F89421
:100E3000EC912E2B2C938FBFF6CF3FB7F894809177
:100E4000270290912802A0912902B0912A0226B58A
:100E5000A89B05C02F3F19F00196A11DB11D3FBFF2
:100E6000BA2FA92F982F8827BC01CD01620F711DC1
:100E7000811D911D42E0660F771F881F991F4A95BB
:100E8000D1F708958F929F92AF92BF92CF92DF9247
:100E9000EF92FF920F931F93CF93DF93D09164064D
:100EA000D13208F0D7C0182FC09163060E941D07E9
:100EB0006B017C0180913B0681116BC082E08093C5
:100EC0003B0610933A068FEF80933906109238064E
:100ED000D0933706A3E4B6E0E7E1F6E080E0D8136C
:100EE00091C01092160680911606CC0FC82BC093A5
:100EF000160680911506813009F088C010921506FB
:100F00000E941D076B017C01809116068093BB0037
:100F100080913D0690913E06A0913F06B09140061B
:100F2000892B8A2B8B2BA1F00E941D0700913D0677
:100F300010913E0620913F06309140066C197D09C4
:100F40008E099F09061717072807390708F442C0BA
:100F50008091BC0083FDD8CF85EC8093BC000E94BB
:100F60001D076B017C0180913B06823009F450C063
:100F7000809139068F3F09F46FC080913906803225
:100F800009F46CC080913906803309F469C084E0AB
:100F900026C080913D0690913E06A0913F06B091FB
:100FA0004006892B8A2B8B2B09F484CF0E941D07C6
:100FB00080903D0690903E06A0903F06B09040067F
:100FC0006C197D098E099F0986169706A806B90631
:100FD00008F070CF80913C060E94CB0685E010920D
:100FE00042061092640610924106DF91CF911F9144
:100FF0000F91FF90EF90DF90CF90BF90AF909F90B8
:101000008F9008959D9191938F5F69CF85EEA5CFC5
:1010100080913D0690913E06A0913F06B09140061A
:10102000892B8A2B8B2B09F49ECF0E941D070091E0
:101030003D0610913E0620913F06309140066C1906
:101040007D098E099F09061717072807390708F039
:101050008ACFC0CF81E0C3CF80E0C1CF82E0BFCFD5
:1010600083E0BDCF8F929F92AF92BF92CF92DF92DB
:10107000EF92FF924B015C010E941D076B017C0106
:101080000E941D076C197D098E099F09683E7340F7
:1010900081059105A8F321E0821A9108A108B10801
:1010A00088EEC80E83E0D81EE11CF11C8114910467
:1010B000A104B10429F7FF90EF90DF90CF90BF908B
:1010C000AF909F908F9008950F931F93CF93DF93CE
:1010D0008C0184E698E00E9481058A3AC9F460E0B8
:1010E00081E10E947F066AEF70E080E090E00E945C
:1010F000320861E081E10E947F0690919B0280911D
:101100009A029817D1F184E698E00E948105F5CF04
:101110009C01207F3327203F310579F78F70992775
:1011200090939D0280939C0281309105F1F002978B
:1011300001F190E080E0C0E02C2F30E02F5F3F4FC6
:1011400020173107D1F60097C1F2CC23B1F2D82F86
:101150008C0184E698E00E948105F80181938F015B
:101160008E2F8D1B8C17A8F3C8CF8EE992E0C4E1B7
:10117000E3CF88EB92E0CAE1DFCFDF91CF911F91FF
:101180000F910895BF92CF92DF92EF92FF920F934B
:101190001F93CF93DF936C01B42E611113C061E0F4
:1011A00088EE0E94070466E670E080E090E0DF9140
:1011B000CF911F910F91FF90EF90DF90CF90BF9054
:1011C0000C9432087C0187E5E80EF11CD0E0C0E009
:1011D000062F10E0D7018D919D917D01009731F18F
:1011E000DC01ED91FC910680F781E02D099586FFE9
:1011F0001DC0877080171106C9F4CC0FDD1FCC0D00
:10120000DD1DC95ADF4F88819981DC01ED91FC9188
:101210000284F385E02D6B2DDF91CF911F910F910B
:10122000FF90EF90DF90CF90BF9009942196C0314E
:10123000D10581F6DF91CF911F910F91FF90EF9033
:10124000DF90CF90BF9008952FB7F894609123025C
:101250007091240280912502909126022FBF08955B
:101260008F929F92AF92BF92CF92DF92EF92FF92B6
:101270000F931F93CF93DF93882E962E5A010E94CF
:1012800024096B017C0128E8C20E23E1D21EE11C77
:10129000F11C10E000E0D0E0C0E098280E94240992
:1012A0006C197D098E099F0997FF1EC0692D80EF7B
:1012B0000E9407040E9424096C197D098E099F0968
:1012C00097FF09C088EC0E94570487FFF3CF60E8BE
:1012D00088EC0E94070488EF0E945704C82FCF7043
:1012E000C43081F0CE30B9F08C2FDF91CF911F91B7
:1012F0000F91FF90EF90DF90CF90BF90AF909F90B5
:101300008F9008950F5F1F4FA114B10439F20A1591
:101310001B0521F6E9CFDF5FD33009F0BFCFE4CF63
:101320002F923F924F925F926F927F928F929F92F5
:10133000AF92BF92CF92DF92EF92FF920F931F93E3
:10134000CF93DF9300D000D01F92CDB7DEB79D833F
:101350008C834B017A016901FC0111818FEF810FB0
:10136000803408F0B5C00E9424092B013C01F8E844
:101370004F0EF3E15F1E611C711CEC81FD818381C6
:1013800060E480FD60E888EE0E940704312C812F24
:1013900090E09A838983E114F10409F475C009810E
:1013A0001A81E016F10608F487010B83A601602F6D
:1013B00080E10E942804602F88E30E940704EC81EA
:1013C000FD816081606280EF0E94070488EC0E94CA
:1013D000570487FFFBCF60E888EC0E94070488EF82
:1013E0000E9457048F70382EB12CA12C212C332051
:1013F000F9F00E942409641975098609970997FF75
:1014000017C0F6E03F16E9F02EE03216B1F084E0A6
:10141000381209C09FEFA91AB90A8114910489F002
:10142000A814B90471F460E088E30E9407042EC098
:10143000E01AF10AC00ED11EAECF2394E3E02E16BF
:1014400091F360E088E30E940704F601608180E187
:101450000E9407046B8188E30E940704EC81FD81F0
:101460006081606280EF0E94070488EC0E9457044C
:1014700087FFFBCF60E888EC0E94070488EF0E949A
:1014800057048F70382EB3CF3110CDCF88EF0E9424
:101490005704EC81FD81938185FB90F99383832D23
:1014A0000F900F900F900F900F90DF91CF911F91A1
:1014B0000F91FF90EF90DF90CF90BF90AF909F90F3
:1014C0008F907F906F905F904F903F902F900895F6
:1014D0008AED382EE4CFCF92DF92EF92FF920F93F6
:1014E0001F93CF93DF9300D000D0CDB7DEB7790143
:1014F00068011A8219821C821B828E010D5F1F4FA8
:101500009E012F5F3F4F0E94AC04811108C06B8188
:101510007C819601A70189819A810E9490090F9090
:101520000F900F900F90DF91CF911F910F91FF902F
:10153000EF90DF90CF90089508954091DD01509194
:10154000DE012091DB013091DC0142175307B4F436
:101550009091E8009570E1F39091E80092FD19C038
:101560008093F1008091DD019091DE0101968F73EF
:101570009927892B19F48EEF8093E8008091DD0183
:101580009091DE0101969093DE018093DD0181E070
:10159000089580E00895DF92EF92FF920F931F93DA
:1015A000CF93DF93D82E8A01EB017B01E40EF51E69
:1015B000CE15DF0559F0D7FE12C0FE0184910E94BE
:1015C0009D0A21968111F4CF0FEF1FEFC801DF9123
:1015D000CF911F910F91FF90EF90DF900895888138
:1015E000EECF42E150E069E472E080E80E94CB0A6D
:1015F00082E190E00895CF93DF93CDB7DEB7679790
:101600000FB6F894DEBF0FBECDBFFC01DB019C918D
:101610009F5F9C9327E0AE014D5F5F4FDA01822F01
:101620001D928A95E9F789E0898394E09A8382E0A4
:101630008D8388E58E8382E48F832A8735E03B871C
:1016400083E08D8740E450E05F874E87988B298B3D
:101650003A8B8C8B5E8B4D8B9F8B82818B838381AE
:10166000982F90689C878F5F8B8B47E150E0BE017D
:101670006F5F7F4F80E00E94CB0A67960FB6F894A9
:10168000DEBF0FBECDBFDF91CF9108952FB7F89485
:1016900087708093E9009091E800892F807295FF10
:1016A00004C09091F20080E4891B2FBF08958F92AF
:1016B0009F92AF92BF92CF92DF92EF92FF920F93E1
:1016C0001F93CF93DF93C82E8B017A018091E301A2
:1016D00081110FC08FEF9FEFDF91CF911F910F917D
:1016E000FF90EF90DF90CF90BF90AF909F908F9042
:1016F00008958091E10180FF05C08091E000826043
:101700008093E000CE2DDF2DD12C8C2D8770A82E5C
:101710008C2D8072982E8C2D8074882E8AE3B82EA2
:10172000209719F4DD2009F448C08C2D0E94460B47
:10173000882381F28C171D0611F00CF08C2F9FB7B7
:10174000F894A092E9002091E80025FD02C09FBF17
:10175000E7CF282F30E0C21BD30B992029F081500E
:10176000A0F01092F100FBCFF801C7FC0AC0815035
:1017700050F041914093F100FACF44914093F10031
:1017800031968150D0F7020F131FDD2021F0B09267
:10179000E800D12CDCCF8091E80085FD07C0B09235
:1017A000E800DD24D394209791F2F3CF209779F6C7
:1017B000882069F2B092E800CACF1092E001C70118
:1017C0008BCF9091E301992311F13FB7F894877083
:1017D0008093E9008091F20090E0481759070CF4DB
:1017E000CA01282FFB01215038F028981092DF0100
:1017F0004091F1004193F7CF009739F02091F2002A
:10180000211103C02BE62093E8003FBF08958FEF1E
:101810009FEF0895615030F02091F100FC0120838A
:101820000196F8CF28981092DF010895AF92BF92E9
:10183000CF92DF92EF92FF920F931F93CF93DF939C
:101840006C017B018B01040F151FEB015E01AE18CB
:10185000BF08C017D10759F06991D601ED91FC91ED
:101860000190F081E02DC6010995892B79F7C5011A
:10187000DF91CF911F910F91FF90EF90DF90CF906C
:10188000BF90AF90089590E080E008958091CE01E0
:1018900081110BC01092CA0181E08093CB0110929C
:1018A000CD011092CC018093CE018AEC91E0089595
:1018B0000F931F93CF93DF931F92CDB7DEB719829B
:1018C0000E94460CDC0112960D911C910115110528
:1018D00089F0D801ED91FC910280F381E02DBE01E9
:1018E0006F5F7F4FC801099597FD04C0F80100851F
:1018F0001185ECCF89810F90DF91CF911F910F91CE
:101900000895FC0182818F5BFB01808381E0089553
:10191000FC01538D448D252F30E0842F90E0821BF5
:10192000930B541710F0CF96089501970895FC017A
:10193000918D828D981761F0A28DAE0FBF2FB11DD2
:101940005D968C91928D9F5F9F73928F90E008952A
:101950008FEF9FEF0895FC01918D828D981731F0E4
:10196000828DE80FF11D858D90E008958FEF9FEF38
:101970000895FC01918D228D892F90E0805C9F4F0E
:10198000821B91098F739927089580E798E00E9440
:10199000B90C21E0892B09F420E0822F089580E022
:1019A00090E0892B29F00E94C50C81110C94000055
:1019B0000895FC01A48DA80FB92FB11DA35ABF4FE4
:1019C0002C91848D90E001968F739927848FA6893E
:1019D000B7892C93A089B1898C9182748C93938D53
:1019E000848D981306C00288F389E02D80818F7D55
:1019F00080830895EF92FF920F931F93CF93DF930D
:101A0000EC0181E0888F9B8D8C8D981319C0E8893B
:101A1000F989808185FF14C09FB7F894EE89FF890A
:101A20006083E889F9898081827480839FBF81E027
:101A300090E0DF91CF911F910F91FF90EF9008956B
:101A4000F62E0B8D10E00F5F1F4F0F731127E02E46
:101A50008C8D8E110CC00FB607FCFACFE889F9897E
:101A6000808185FFF5CFCE010E94D90CF1CFEB8D9F
:101A7000EC0FFD2FF11DE35AFF4FF0829FB7F89452
:101A80000B8FEA89FB8980818062CFCFCF93DF9370
:101A9000EC01888D8823B9F0AA89BB89E889F98986
:101AA0008C9185FD03C0808186FD0DC00FB607FCBB
:101AB000F7CF8C9185FFF2CF808185FFEDCFCE01EE
:101AC0000E94D90CE9CFDF91CF910895CF93DF9396
:101AD000EC0180910B01882331F083E00E94570BC9
:101AE0001816190634F081E090E09B838A8380E029
:101AF00090E0DF91CF910895CF93DF931F92CDB700
:101B0000DEB76983DC01ED91FC910280F381E02D69
:101B100041E050E0BE016F5F7F4F09950F90DF916C
:101B2000CF91089583E08093E9008091F2008823AB
:101B300019F08AE38093E800089583E00E94460B41
:101B400090E00895CF93DF931F92CDB7DEB7FC01ED
:101B50008485958597FD08C02FEF3FEF3587248753
:101B60000F90DF91CF91089541E050E0BE016F5F8B
:101B70007F4F82E00E94E10B019719F4898190E088
:101B8000EFCF8FEF9FEFECCF0F931F93CF93DF93A8
:101B90001F92CDB7DEB78C01FC018485958597FF38
:101BA0000FC041E050E0BE016F5F7F4F82E00E94B6
:101BB000E10B019771F4898190E0F80195878487A2
:101BC000F801848595850F90DF91CF911F910F913A
:101BD00008958FEF9FEFF1CFFC018485958597FDE8
:101BE0000BC09FB7F89482E08093E9008091F200E7
:101BF0009FBF90E0019608959FB7F89482E080938C
:101C0000E9008091F2009FBF90E00895CF93DF93A9
:101C1000EC01ECECF3E084E022E39C81992341F0B9
:101C20003181931305C0DF01922F1D929A95E9F738
:101C30008150F2968111F1CF8A819B81DC01ED9177
:101C4000FC910480F581E02D6C810995FE013596AB
:101C500084E2DF011D928A95E9F71C8219A680E0D3
:101C6000DF91CF9108950F931F93CF93DF938C0152
:101C7000EB01AB01BC0180E298E00E944C32892B61
:101C800081F080911508AE01B80180640E94570B65
:101C9000C817D90731F4AE01B80180E298E00E947C
:101CA0005932CE01DF91CF911F910F9108954F923C
:101CB0005F926F927F92AF92BF92CF92DF92EF923C
:101CC000FF920F931F93CF93DF93CDB7DEB76C01D5
:101CD0008B01ADB6BEB68DB79EB7861B970B0FB600
:101CE000F8949EBF0FBE8DBFEDB7FEB731967F0152
:101CF000EDB7FEB711823296C701860F971F11927A
:101D0000E817F907E1F7809115088F5FA801B7017F
:101D100080640E94E10B0817190751F5A801B7016B
:101D200080E498E00E945932A801B701C6010E94E0
:101D300059320E942409609360087093610880936F
:101D4000620890936308C8010FB6F894BEBE0FBE38
:101D5000ADBEDF91CF911F910F91FF90EF90DF907B
:101D6000CF90BF90AF907F906F905F904F9008950D
:101D70000E942409409060085090610860906208B9
:101D8000709063086419750986099709A801653F71
:101D900071408105910540F070E060E0C6010E944D
:101DA000623210E000E0CFCF60E478E0C6010E942C
:101DB00059320091410810E0C6CF1F93CF93DF93B3
:101DC000EC01188181E090E00E944E31181729F053
:101DD000612F81E090E00E945631198182E090E00D
:101DE0000E944E31181729F0612F82E090E00E9486
:101DF0005631CE01DF91CF911F9108952F923F92DE
:101E00004F925F926F927F928F929F92AF92BF920A
:101E1000CF92DF92EF92FF920F931F93CF93DF93B6
:101E20007B013A016901F901A080B180FB01318099
:101E3000F90111821082FB01838160E181FD60E282
:101E400088EE0E9407042A2CA301F701608180E03C
:101E50000E943009582EF6E08F17B1F3811150C05F
:101E600088EC0E94570482FF5FC080E30E94570401
:101E7000482E8A151B0411F008F0422CF6018081CF
:101E80009181E501C81BD90BD7FF02C0D0E0C0E0AB
:101E9000842C912C8C169D060CF4E40180E591E0D5
:101EA0000E94BA010E94BE0288E00E945004AE0166
:101EB00070E060E0C8010E946232209721F0BE010C
:101EC000C8010E94A2020C0F1D1F0E94BC0264E008
:101ED00088EC0E940704F60180819181880E991E8A
:101EE00091828082431420F08A149B0408F4ACCFC2
:101EF00088EF0E945704F701938184FB91F9938343
:101F0000852DDF91CF911F910F91FF90EF90DF9082
:101F1000CF90BF90AF909F908F907F906F905F9089
:101F20004F903F902F90089580EF582EE9CFAF92B9
:101F3000BF92CF92DF92EF92FF920F931F93CF93B6
:101F4000DF9300D000D0CDB7DEB77C016901580126
:101F50001C821B821A8219828E010F5F1F4F9E0105
:101F60002D5F3F4F0E94AC04811109C049815A8105
:101F70006B817C8185019601C7010E94FE0E0F9046
:101F80000F900F900F90DF91CF911F910F91FF90C5
:101F9000EF90DF90CF90BF90AF9008952F923F9237
:101FA0004F925F926F927F928F929F92AF92BF9269
:101FB000CF92DF92EF92FF920F931F93CF93DF9315
:101FC000CDB7DEB72F970FB6F894DEBF0FBECDBFEB
:101FD0003C01F42E322E202ECF864CA05DA0CEA048
:101FE000DFA01E861D861C861B868E01055F1F4F87
:101FF0009E01235F3F4F0E94AC04811156C039827D
:102000002A82EB828F858C83BE82AD8298868F82F6
:10201000AE014F5F5F4F68E080E20E9428044B856D
:102020005C856F2D80E10E94300981113EC0C11492
:10203000D10419F1ED85FE8537FE25C093819260AC
:1020400093838114910409F449C05A8649864B85CB
:102050005C856D857E8586019E01275F3F4FC301AC
:102060000E94FE0E863069F381111FC029853A85D2
:10207000821A930A2415350520F74B855C8537FEB7
:1020800010C080EA0FC08381816083836B857C856B
:102090009601A201CF010E949009811106C04B85D3
:1020A0005C8580E86F2D0E9430092F960FB6F8945A
:1020B000DEBF0FBECDBFDF91CF911F910F91FF907B
:1020C000EF90DF90CF90BF90AF909F908F907F90D8
:1020D0006F905F904F903F902F9008954B855C8557
:1020E000882379F2E2CF8F929F92AF92BF92CF92E4
:1020F000EF920F93CF931F921F921F921F92912CDA
:10210000812CB12CA12CC12CE62E05E020E040E072
:1021100060E00E94CE0FC82F6CE271E080E090E09A
:102120000E9432080F900F900F900F908C2FCF913C
:102130000F91EF90CF90BF90AF909F908F900895A8
:102140008F929F92AF92BF92CF92EF920F933F9355
:102150002F935F934F934A01B12CA12C22E0C22E02
:10216000E12C06E020E840E00E94CE0F0F900F9097
:102170000F900F900F91EF90CF90BF90AF909F90E6
:102180008F9008958F929F92AF92BF92CF92EF92CD
:102190000F93A42EB12C1F921F921F921F92912C6D
:1021A000812CC12CE62E01E023E240E0FC01648595
:1021B000828193810E94CE0F0F900F900F900F900D
:1021C0000F91EF90CF90BF90AF909F908F90089518
:1021D0008F929F92AF92BF92CF92EF920F93A62EC3
:1021E000B12C5F934F931F9224E02F9324E0822E13
:1021F000912CC12CE12C00E023EA40E0FC01648535
:10220000828193810E94CE0F0F900F900F900F90BC
:102210000F91EF90CF90BF90AF909F908F900895C7
:102220008F929F92AF92BF92CF92EF920F93A42E74
:10223000B12C1F921F921F921F92912C812CC12CA6
:10224000E62E03E023E240E0FC0164858281938175
:102250000E94CE0F0F900F900F900F900F91EF9064
:10226000CF90BF90AF909F908F900895CF92DF92C4
:10227000FF920F931F93CF93DF9300D000D0CDB781
:10228000DEB78C01F62E19821A821B821C82462F21
:1022900061E10E94C2104F2D60E1C8010E94C2108E
:1022A0004F2D64E0C8010E94101183E0C82ED12C8C
:1022B000AE014F5F5F4F6F2DC8010E94E810811182
:1022C00014C089819A81AB81BC819D7F833091400C
:1022D000A041B10551F064E670E080E090E00E941A
:1022E000320881E0C81AD10819F74F2D64E1C801FE
:1022F0000E94C2104F2D60E1C8010E94C21064E12B
:1023000070E080E090E00E9432080F900F900F90F4
:102310000F90DF91CF911F910F91FF90DF90CF90A1
:1023200008953F924F925F926F927F928F929F9209
:10233000AF92BF92CF92DF92EF92FF920F931F93D3
:10234000CF93DF93CDB7DEB762970FB6F894DEBFB9
:102350000FBECDBF3C01F62ED42E322EDC011B96D3
:102360002C93FE0131962F01FF93EF931F9282E190
:102370008F9392E1892E912CB12CA12CCC24C39463
:10238000E12C06E020E840E060E0C3010E94CE0FAF
:10239000182F0F900F900F900F9081116CC04D2D42
:1023A0006F2DC3010E94C2085301F7E5AF0EB11CA7
:1023B000430187E7880E911CD5018D919C91009770
:1023C00031F5B2E0AB0EB11C8A149B04A9F7B9EF4A
:1023D0006B16BFEF7B06C9F0F3018781908517ED7F
:1023E000892B09F448C033862D2D40E06F2DC301A1
:1023F0000E94E202F82E14ED8823E9F1682FC30150
:102400000E943703009709F04FC016ED34C0DC017D
:10241000ED91FC910680F781E02D09958111D1CFD6
:1024200084E0E82EF50180819181DC01ED91FC9141
:102430000190F081E02D8201232D4D2D6F2D099506
:10244000182F8D3051F4EA94EE2069F064E670E0C4
:1024500080E090E00E943208E5CF882361F0877F1A
:10246000813D09F4AECF4D2D6F2DC3010E94C208EE
:10247000143E09F0A6CF812F62960FB6F894DEBF06
:102480000FBECDBFDF91CF911F910F91FF90EF90C5
:10249000DF90CF90BF90AF909F908F907F906F9084
:1024A0005F904F903F900895DC0114963C926F2D01
:1024B000C3010E947310182F8823E9F26F2DC30106
:1024C0000E94C002D8CFEF92FF921F93CF93DF9369
:1024D000EC01162F7A01FA0180819181A281B381EA
:1024E0008130F3E09F07F1E0AF07B105C9F170F467
:1024F0008115E1E09E07AE07B10509F44EC08130B9
:102500009140A140B10561F180E041C0833021E0FC
:10251000920720E1A207B10529F083309340A04142
:10252000B10591F7412F64E1CE010E94C210412F05
:1025300060E1CE010E94C21064E170E080E090E0B2
:102540000E9432086C85F701218126952170677001
:10255000412F8A819B810E94911110929902D4CFC0
:10256000809199028111D0CF412F61E1CE010E946B
:10257000C210412F60E1CE010E94C210412F64E0E1
:10258000CE010E94101181E08093990281EBDF91CE
:10259000CF911F91FF90EF900895462F61E1CE01FA
:1025A0000E94C210412F60E1CE010E94C210109221
:1025B00099026C8567701770660F660F660F612B46
:1025C0008A819B810E944E039FCFCF92DF92EF9230
:1025D000FF920F931F93CF93DF93CDB7DEB72E9764
:1025E0000FB6F894DEBF0FBECDBFFC0123892111C9
:1025F00011C010E0812F2E960FB6F894DEBF0FBEEB
:10260000CDBFDF91CF911F910F91FF90EF90DF90A1
:10261000CF9008957C010E942409F7010785108955
:1026200021893289601B710B820B930B97FDE1CFDF
:1026300081E090E09E878D878E010F5F1F4F9E0186
:10264000235F3F4F41E06485828193810E94970F11
:10265000182F811121C082E0D82E01E089818D21BF
:1026600039F119861A861B861C86AE01475F5F4FBB
:10267000602FC7010E94E810C82E811119C0AE0159
:10268000475F5F4F602FC7010E946312813B19F0C3
:10269000882371F0C82E1C2D0E9424096C597F4F8D
:1026A0008F4F9F4FF7016787708B818B928BA2CFE3
:1026B000DD0C0F5F083091F601E0F7018685801789
:1026C00058F319861A861B861C86AE01475F5F4F3A
:1026D000602FC7010E94E810D82E811117C089858C
:1026E0009A85877091708130914081F48B859C85AB
:1026F00081609C878B87AE01475F5F4F602FC7016A
:102700000E946312813B29F0811102C00F5FD5CF77
:10271000D82E1D2DC1CFCF92DF92EF92FF920F9353
:102720001F93CF93DF937C018B016A01C22F0E941C
:102730002409D8019A966D937D938D939C939D97D0
:10274000D0E0AE01B60184E994E00E94B730D80130
:102750001496ED91FC9104E914E09E014081F7018B
:102760006481828193810E946B0ADF91CF911F91D6
:102770000F91FF90EF90DF90CF9008954F925F926E
:102780006F927F928F929F92AF92BF92CF92EF9271
:10279000FF920F931F93CF93DF9300D01F92CDB77B
:1027A000DEB72C01ACECB3E0F0E0E0E09E2F81E07E
:1027B0008E0F11965C911197511139C0D80152E3D7
:1027C0005E9F80015F9F100D1124F801E453FC4FC0
:1027D0003F018F01085F1F4F5AE2F80111925A958D
:1027E000E9F7F30161834083F782E6823383228332
:1027F000B583A483828F88E083A3F2E0EF16F1040F
:10280000F9F424E047EF52E0B301C2010E948B13B8
:1028100024E04CEC52E0B301C2010E948B1324E08F
:1028200048EC52E0B301C2010E948B1324C03196E0
:10283000D296E430F10509F0B9CF712C612C1BC0A0
:1028400023E0E216F10459F52091170330911803A3
:102850004091190329833A834B8382E0890F8B834C
:102860008E010F5F1F4F23E030E04C91F201828117
:1028700093810E946B0AC3010F900F900F90DF911C
:10288000CF911F910F91FF90EF90CF90BF90AF909D
:102890009F908F907F906F905F904F900895F1E0A0
:1028A000EF16F10409F04BC025E043EC52E0B30110
:1028B000C2010E948B13F20184A595A58E35944028
:1028C00089F4F20182A593A58A3EF2E09F0719F0F0
:1028D00081159B4039F425E04EEB52E0B301C20173
:1028E0000E948B13F20184A595A58F369E40A9F412
:1028F00027E047EB52E0B301C2010E948B1322E0B4
:1029000045EB52E0B301C2010E948B1326E04FEA6F
:1029100052E0B301C2010E948B13F20184A595A578
:10292000863C944209F0A7CF2DE042EA52E0B30181
:10293000C2010E948B132DE045E952E073CF25E0E0
:10294000E21AF10882E0E816F10408F094CFA42E10
:10295000B12C1F921F921F921F92912C812CC12C7F
:10296000E12C0BE021E240E0F201828193810E94A0
:10297000CE0F0F900F900F900F907DCFEF92FF92A0
:102980000F931F93CF937C018B01C42FDB015A96C9
:102990008C915A975B968C930E942409F80162A748
:1029A00073A784A795A7868197818230910521F02E
:1029B000039769F180E023C0E4E9F4E08CE0DF01F3
:1029C0001D928A95E9F744E050E06AE173E0CF0197
:1029D0000E94B730CC23C9F0CB5FC064C09397048A
:1029E0002CE030E0D8011496ED91FC9104E914E05C
:1029F0004081F7016481828193810E946B0ACF91AB
:102A00001F910F91FF90EF900895C0E4E7CF43E04E
:102A100050E067E173E084E994E00E94B730C111AF
:102A2000CB5FC093960423E030E0DCCF2F923F923F
:102A30004F925F926F927F928F929F92AF92BF92CE
:102A4000CF92DF92EF92FF920F931F93CF93DF937A
:102A500000D000D0CDB7DEB7FC01C280D38081E0CA
:102A600081AB16A613AA12AA11A68481811123C2D2
:102A7000B22EA42EF62E3F0115821086D80117968D
:102A80008C9186838CE380872F01B5E04B0E511C1F
:102A9000920141E060E0C6010E94E203D30181E0BF
:102AA00090E033E024E019961C9219971C963C9311
:102AB0001C97FC013296EE0FFF1FEE0FFF1FE60D75
:102AC000F71D2083019614968930910561F7D60190
:102AD000ED91FC910280F381E02D2A2D40E06F2DD5
:102AE000C6010995F301848394EDF92E882371F1D1
:102AF000682F828193810E947310F82E882349F0F9
:102B0000D301ED91FC910280F381E02DC301099581
:102B10001DC064E170E080E090E00E943208D601C0
:102B2000ED91FC910190F081E02DD30114966C9110
:102B3000C6010995009711F5D301ED91FC91028032
:102B4000F381E02DC3010995B6EDFB2E8F2D0F907B
:102B50000F900F900F90DF91CF911F910F91FF90E9
:102B6000EF90DF90CF90BF90AF909F908F907F902D
:102B70006F905F904F903F902F900895FC01B4822A
:102B8000D8011A968D919C911B97F30193A782A768
:102B900018968D919C91199795A784A71F968C9153
:102BA0001F9786A71E968C911E9787A750968C918B
:102BB00080AB84E994E09F938F931F9282E18F937F
:102BC000A2E18A2E912CB12CA12CCC24C394E12C0F
:102BD00006E020E840E06481828193810E94CE0F6C
:102BE000F82E0F900F900F900F908111AFCF24E926
:102BF00034E049E050E0D30114966C91149712969A
:102C00008D919C910E94A010F82E811179CF409156
:102C100096045091970424E934E0F30164818281A1
:102C200093810E94A010F82E81116ACF1F921F92EB
:102C30001F921F92912C812CB12CA12CC12CE090C1
:102C4000990409E020E0F301458164818281938148
:102C50000E94CE0FF82E0F900F900F900F90909033
:102C60009804812CE4E9CE2EE4E0DE2E811148CFD9
:102C7000992009F4C8C02091960430919704F60178
:102C80008181843051F08081880E8216130611F004
:102C900008F014C1C80ED11CF2CF44814423B9F10D
:102CA00086818D3541F497819138B9F1913049F49D
:102CB00003E010E034C0873421F49781903D09F49B
:102CC00061C0D60115969C911597983529F48234E8
:102CD000F1F404E010E023C09330C9F4813051F4E2
:102CE000F6018781813009F452C0823081F406E018
:102CF00010E015C081110BC017968C91811107C08F
:102D0000F30184A595A5883C9D4209F443C09A949B
:102D1000D6018C91C80ED11CABCF02E010E0F301BC
:102D200061A920E030E0B12CA12C2417C0F5F601F8
:102D3000E30FF11D70818181853011F5838183302E
:102D4000F1F45281822F860FA4E08A9FC0011124E2
:102D5000D301A80FB91FF52EE894F7F81596FC9249
:102D60001597E4811696EC931697E52FE078179661
:102D7000EC930596860D971D57FD0FC05C012F5FE4
:102D8000370FD3CF01E010E099249394C8CF05E02A
:102D900010E0C5CF07E010E0C2CF1C01F0CF460F16
:102DA000F30141AB92016481828193810E94E2032D
:102DB000F82E8111A5CE0230110561F07801850150
:102DC0009101F6014281D30114966C91C3010E94D6
:102DD000BE139DCFF30113AB02AB44E050E06BEFA9
:102DE00072E0CE0101960E94B7308E010F5F1F4F37
:102DF00024E030E0D5014C91F3016481828193811C
:102E00000E946B0A84CFF301E6A4EE2009F440C0CF
:102E100044E9442E44E0542E5F924F921F9282E088
:102E20008F9352E0852E912C69E0A62E64E0B62E99
:102E300073E0C72E06E020E845816481828193819A
:102E40000E94CE0F0F900F900F900F90811120C015
:102E5000809195048330E1F480919404882E912C24
:102E60005F924F921F928F93D3019E96EC909E9704
:102E700020E815964C91159714966C91149712961C
:102E80008D919C910E94CE0F0F900F900F900F90FC
:102E9000F30181A9823058F40190F081E02D028085
:102EA000F381E02DC301099531EDF32E4FCE81E082
:102EB00081A7F12C4BCE29EDF22E48CE82E0F82EE0
:102EC00045CE85ED8093BC0080913D0690913E06F5
:102ED000A0913F06B09140060796A11DB11D23E0C9
:102EE000B695A795979587952A95D1F72091BC001F
:102EF00024FD03C010923B06089540913D06509179
:102F00003E0660913F0670914006452B462B472BAD
:102F100069F30097A105B10541F02AE22A95F1F77E
:102F200000C00197A109B109E1CF80913C060C9442
:102F3000CB06FB0101900020E9F73197AF01461B5A
:102F4000570BDC01ED91FC910280F381E02D099497
:102F50008F929F92AF92BF92EF92FF920F931F9327
:102F6000CF93DF93CDB7DEB7A1970FB6F894DEBF4E
:102F70000FBECDBF7C01FA01CB0119A2223008F4AB
:102F80002AE08E010F5D1F4F822E912CB12CA12CB7
:102F9000BF01A50194010E948331F901CA016A3081
:102FA0000CF5605DD8016E938D01232B242B252B0E
:102FB00079F790E080E0109721F0BD01C7010E94F1
:102FC0009917A1960FB6F894DEBF0FBECDBFDF9163
:102FD000CF911F910F91FF90EF90BF90AF909F9076
:102FE0008F900895695CDECF8F929F92AF92BF92CF
:102FF000CF92DF92EF92FF920F931F93CF93DF93C5
:103000007C01EB016C0182E0C80ED11C4701E5E0B8
:103010008E0E911C10E000E0F60141916F0150E02E
:1030200070E060E02AE0CE010E94A8175C01E88110
:10303000F9810190F081E02D6EE2CE0109958A0DB3
:103040009B1D080F191FC814D90431F7F7014581DA
:1030500050E070E060E02AE0CE010E94A817800FE7
:10306000911FDF91CF911F910F91FF90EF90DF9013
:10307000CF90BF90AF909F908F900895CF93DF93A4
:10308000BC0180E798E00E949917EC016AE971E0C1
:1030900080E798E00E9499178C0F9D1FDF91CF91D8
:1030A00008952F923F924F925F926F927F928F92EC
:1030B0009F92AF92BF92CF92DF92EF92FF920F93C7
:1030C0001F93CF93DF9300D0CDB7DEB7DC01999685
:1030D0002C91222309F4E2C56C017724739452E306
:1030E000352E662463946CE0262E88248394912CDC
:1030F000F60181A9781608F0D1C5F4E07F9E800121
:103100001124580125E0A20EB11CAC0CBD1CECEC46
:10311000F3E090E080E02181222309F443C1228181
:1031200033812A153B0531F024813581A216B3067F
:1031300009F038C1389E9001399E300D1124C90123
:1031400084539C4F7C01F601E00FF11F878187FFBC
:10315000DFC38681813208F080E290E09A83898320
:10316000E114F10409F027C1F601E00FF11F4581D8
:1031700004E914E09E012F5F3F4FF60164818281D4
:1031800093810E94970F811128C1D601D2968D910B
:103190009C91029789F0F701268137812330310510
:1031A00009F41DC108F00DC12130310509F425C213
:1031B0002230310509F011C18091940483FF16C0BB
:1031C00080919504882309F4DDC1E114F10491F4A0
:1031D00085010C5F1F4F42E0E42EF12C950140E089
:1031E000F6016481C6010E94BE137C01E114F10462
:1031F00009F4F3C020919504283F19F4D7015C9697
:103200001C9220FFB9C080919904833109F0B4C0A9
:1032100080919A0490919B0480FDD3C1F70111869F
:10322000108681FF06C0F7014085518542605187B5
:10323000408782FF0AC0D70118964D915C9119977B
:10324000446019965C934E93189783FF06C0F7016C
:103250004085518548605187408784FF0AC0D70167
:1032600018964D915C911997406119965C934E9315
:10327000189785FF06C0F701408551854062518748
:10328000408786FF0AC0D70118964D915C91199727
:10329000406419965C934E93189787FF06C0F70118
:1032A0004085518540685187408790FF0AC0D7010B
:1032B00018964D915C911997516019965C934E93B5
:1032C000189791FF06C0F7014085518552605187DC
:1032D000408792FF0AC0D70118964D915C911997CB
:1032E000546019965C934E93189794FF06C0F701AB
:1032F0004085518550615187408795FF0AC0D701AD
:1033000018964D915C911997506219965C934E9363
:10331000189796FF06C0F701408551855064518784
:10332000408797FF0AC0D70118968D919C911997F5
:10333000906819969C938E93189780919C04F7013E
:10334000828780919D04838780919E0490919F0441
:10335000958784878091A0049091A10497878687A0
:103360008091A2049091A304918B808B8091A404FE
:103370009091A504938B828B21FF2FC08091AC0488
:10338000811125C18091AD04D7015D968C935D9725
:103390008091AE045E968C935E978091AF045F96A9
:1033A0008C931BC00196F2968430910509F0B3CE40
:1033B000F12CE12CC8CED7011296ED91FC91408101
:1033C000D7CE2530310509F49EC208F4DAC182EA6D
:1033D00091E02630310509F498C2739489CE90911A
:1033E0009404913069F4809196048F7011F4138ED7
:1033F000F4CF863008F095E0891BF701838FEDCF7D
:10340000933019F4108E118EE8CF9111E6CF809190
:103410009504843111F7809196049091970480FD72
:10342000AEC01186108681FF06C0F7012085318568
:1034300022603187208782FF0AC0D70118962D911C
:103440003C911997246019963C932E93189783FF0B
:1034500006C0F7012085318528603187208784FFE9
:103460000AC0D70118962D913C91199720611996A1
:103470003C932E93189785FF06C0F7012085318570
:1034800020623187208786FF0AC0D70118962D91C8
:103490003C911997206419963C932E93189787FFB7
:1034A00006C0F7012085318520683187208790FF8D
:1034B0000AC0D70118962D913C9119973160199641
:1034C0003C932E93189791FF06C0F7012085318514
:1034D00032603187208794FF0AC0D70118962D915A
:1034E0003C911997306119963C932E93189795FF4C
:1034F00006C0F7012085318530623187208796FF2D
:103500000AC0D70118962D913C91199730641996ED
:103510003C932E93189797FF06C0F70180859185FD
:1035200090689187808780919804D7011A968C9330
:103530001A97809199041B968C931B9780919A04FB
:1035400090919B041D969C938E931C9780919C0454
:1035500090919D041F969C938E931E9780919E043C
:1035600090919F0451969C938E9350978091A004C4
:103570009091A10453969C938E9352972ECF91864F
:10358000808651CFE114F10409F427CFFCECEF164B
:10359000F3E0FF0681F02EEFE21623E0F20659F089
:1035A00080E3E81684E0F80631F092E6E91694E04C
:1035B000F90609F012CFD701E32D1D92EA95E9F73C
:1035C0000CCFD70119969C928E9218972ACE803FE5
:1035D00009F003CF8091AD04833019F4F701148E04
:1035E000FCCE843009F0F9CE8091AE0487FFF5CE91
:1035F0008F77D70194968C93F0CE8091940480328B
:1036000009F0EBCE809198049091990490FDB6C09A
:103610001186108691FF06C0F70120853185226052
:103620003187208792FF0AC0D70118962D913C91CF
:103630001997246019963C932E93189793FF06C010
:10364000F7012085318528603187208782FF0AC0F5
:10365000D70118962D913C911997206119963C93AA
:103660002E93189783FF06C0F701208531852062CD
:103670003187208796FF0AC0D70118962D913C917B
:103680001997206419963C932E93189797FF06C0BC
:10369000F7012085318520683187208794FF0AC093
:1036A000D70118962D913C911997316019963C934A
:1036B0002E93189795FF06C0F7012085318532605B
:1036C0003187208784FF0AC0D70118962D913C913D
:1036D0001997306119963C932E93189785FF06C071
:1036E000F7012085318530623187208786FF0AC047
:1036F000D70118962D913C911997306419963C93F7
:103700002E93189787FF06C0F701808591859068F2
:103710009187808780919A0490919B0496958795D4
:1037200096958795D7011A968C931A9780919C0449
:1037300090919D0496958795969587951B968C9369
:103740001B9780919E0490919F041D969C938E934D
:103750001C978091A0049091A1041F969C938E9336
:103760001E978091A2049091A30451969C938E93EE
:1037700050978091A4049091A504FCCE31872087B6
:1037800049CF80919504843109F027CE8091960429
:1037900080FDB6C01186108681FF06C0F701208526
:1037A000318522603187208782FF0AC0D7011896B1
:1037B0002D913C911997246019963C932E9318975C
:1037C00083FF06C0F7012085318528603187208777
:1037D00084FF0AC0D70118962D913C91199720615A
:1037E00019963C932E93189785FF06C0F701208504
:1037F000318520623187208786FF0AC0D70118965D
:103800002D913C911997206419963C932E9318970B
:1038100087FF06C0F7018085918580689187808742
:1038200080919804813250F0D70118968D919C9127
:103830001997906119969C938E931897809199048B
:10384000813230F0F7018085918590629187808781
:1038500080919A04813250F0D70118968D919C91F5
:103860001997906419969C938E93189780919B0456
:10387000813230F0F701808591859068918780874B
:1038800080919C04813250F0D70118968D919C91C3
:103890001997926019969C938E93189780919D0426
:1038A000813230F0F7018085918591609187808722
:1038B00080919E04D7011A968C931A9780919F0449
:1038C0001B968C931B978091A0049091A1041D9648
:1038D0009C938E931C978091A2049091A3041F96B1
:1038E0009C938E931E978091A4049091A504519669
:1038F0009C938E9350978091A6049091A7043ACE02
:103900009186808649CF8DE991E00E943E1865CD71
:10391000E114F10409F461CD0E942409F70122A504
:1039200033A544A555A5621B730B840B950B64311D
:1039300071058105910508F450CD0480F581E02DD5
:103940008081882309F449CDD7015696AC905697CB
:103950005796BC90579758968C915897A81206C0C6
:1039600059968C9159978B1509F4E6C0F701A08EF2
:10397000B18E0E942409D7019A966D937D938D9301
:103980009C939D9716968D919C918230910509F498
:1039900077C008F05CC0019709F4A3C0F7018681E5
:1039A0009781029769F4D70118968D919C9192FDA9
:1039B00007C00E942409F70166A777A780AB91ABE7
:1039C0000E942409D70196960D911D912D913C914D
:1039D0009997601B710B820B930B693E73408105B5
:1039E000910508F4FACCF70186819781029729F5B1
:1039F00024E04BEF52E0B701C6010E948B1324E094
:103A000047EF52E0B701C6010E948B13D7015A96C7
:103A10004C91B701C6010E94BE14F70185A1982FF1
:103A2000962595A324E043EF52E0813011F44FEE48
:103A300052E0B701C6010E948B130E942409D701EE
:103A400096966D937D938D939C939997C6CC833076
:103A50009105C1F1049709F0A1CF46E050E060ED77
:103A600072E084E994E00E94B730A0929604A0929C
:103A70009704B0929804B092990426E030E014C004
:103A8000E4E9F4E0DF01222D1D922A95E9F744E0F4
:103A900050E06BEE72E0CF010E94B730A092990423
:103AA000B0929A042CE030E0D7011496ED91FC918D
:103AB00004E914E04081F6016481828193810E94CF
:103AC0006B0A6CCF48E050E063EE72E084E994E06A
:103AD0000E94B730A0929704B092980428E030E09A
:103AE000E3CF4DE050E066ED72E084E994E00E949F
:103AF000B7306A2D70E090E080E00E94C23026E688
:103B000036E646E250E40E94AB310E941D326093DB
:103B10009C046B2D70E090E080E00E94C23026E6AD
:103B200036E646E250E40E94AB310E941D326093BB
:103B30009D042DE030E0B8CF5A964C915A975B9691
:103B40008C915B97481729F0B701C6010E94BE14FB
:103B500025CFF70186819781029709F031CF848DB7
:103B600081110BC024E043E153E0B701C6010E947C
:103B70008B13D7015C966C9211CF93A184A19817F7
:103B800009F465C044E050E06FE073E084E994E03C
:103B90000E94B730B12CA12C0C0D1D1D2801F5E0A1
:103BA0004F0E511CD70194963C919497C501855FA7
:103BB0009C4FFC014491249193965C91939725230B
:103BC0004323C1F5222369F1F501E95FFC4FE4913C
:103BD000E0939704FC018491832B94968C9304E9E1
:103BE00014E024E030E0F2014081D60114966C919B
:103BF000149712968D919C910E946B0A0E94240941
:103C0000F70162A773A784A795A786A197A1A0A58E
:103C1000B1A5805D9740A109B10986A397A3A0A78C
:103C2000B1A7FFEFAF1ABF0A24E0A216B10409F052
:103C3000B9CFB4CE2111F5CFF501ED5FFC4FE49182
:103C4000E0939704FC01849180958323C6CF189656
:103C50008D919C9192FFA7CE0E942409F70106A5A1
:103C600017A520A931A9601B710B820B930B693E2C
:103C700073408105910508F491CE24E04FEF52E0A6
:103C8000B701C6010E948B130E942409D7019E969A
:103C90006D937D938D939C93D19780CE80E00F9010
:103CA0000F90DF91CF911F910F91FF90EF90DF90D8
:103CB000CF90BF90AF909F908F907F906F905F90CC
:103CC0004F903F902F9008954F925F926F927F9206
:103CD0008F929F92AF92BF92CF92DF92EF92FF921C
:103CE0000F931F93CF93DF93CDB7DEB7E8970FB64F
:103CF000F894DEBF0FBECDBF3C01F42EDC011C9654
:103D00008C911C978111F9C0F8018481893009F0E8
:103D1000F6C01296CD90DC90D601ED91FC91028018
:103D2000F381E02D242F41E0C6010995F30184873A
:103D3000882309F4E6C0982F9F7BF11002C0FF246E
:103D4000F3942F2D2770987F922BD3011D969C936F
:103D50001D97F801978115969C931597682F1296D9
:103D60008D919C910E947310182F882331F1D601F8
:103D7000ED91FC910480F581E02DD3011C966C91AE
:103D8000C6010995F30114861586812FE8960FB6B2
:103D9000F894DEBF0FBECDBFDF91CF911F910F9181
:103DA000FF90EF90DF90CF90BF90AF909F908F905B
:103DB0007F906F905F904F90089593012C5F3F4FDD
:103DC00042E0D3011C966C911C9712968D919C91A8
:103DD0000E94E203182F8111D8CFFE0131962F01E6
:103DE000FF93EF931F9288E08F9388E0882E912CA9
:103DF000B12CA12C99E2C92EE12C06E020EA40E08A
:103E0000D3011C966C911C9712968D919C910E94E7
:103E1000CE0F182F0F900F900F900F908111B5CFEC
:103E20008B81F3018687920148E050E064858281AE
:103E300093810E94A010182F8111A7CF4B815C8124
:103E40004132510510F040E250E09201D3011C963E
:103E50006C911C9712968D919C910E94A010182F26
:103E6000811193CF4981493108F048E150E09E012A
:103E70002F5D3F4FF3016485828193810E94A010E2
:103E8000182F811182CF1F921F921F921F92912C87
:103E9000812CB12CA12CC12CEE8009E020E040E067
:103EA000D3011C966C911C9712968D919C910E9447
:103EB000CE0F182F0F900F900F900F90811165CF9C
:103EC00001E0F3018685801738F0402F68E0C301D8
:103ED0000E9410110F5FF5CFD3010280F381E02D16
:103EE000E958FF4F80818460808381E053968C93F2
:103EF00087EA91E00E943E1848CF19ED46CF11EDB8
:103F000044CF14ED42CF8F929F92BF92CF92DF9217
:103F1000EF92FF920F931F93CF93DF93FC014281A7
:103F2000FB01248135814217130609F0ACC0EC0176
:103F300011814081E280F3808381413C89F5163014
:103F4000C9F4E114F2E4FF0609F072C08A859B858A
:103F500040E150E065E872E08130910531F0029770
:103F600039F440E150E065E772E080E80E94CB0A56
:103F700081E08AC0113009F05BC0E11481E0F806ED
:103F800029F444E150E061E672E0EFCFE114E2E0B1
:103F9000FE0609F04DC046E050E06BE572E0E5CF6B
:103FA000413A69F4113009F043C0813009F040C052
:103FB000BE01625F7F4F40E250E080E0D7CF4132E8
:103FC000B9F51930A9F5823099F5068117810132CA
:103FD000110510F000E210E078014E01FEE28F0EB4
:103FE000911C9BEFB92EE114F104C9F0670181E443
:103FF000E816F1041CF080E4C82ED12C8091E80072
:1040000082FFFCCFC8018E199F096C2D880D991D68
:104010000E940A0CB092E800EC18FD08E4CF0E9460
:104020002409C25BDF4F688379838A839B83A0CF97
:1040300050E070E060E020E180E798E00E94A8177F
:104040006AE971E080E798E00E949917412F50E0FB
:1040500070E060E020E180E798E00E94A8176AE93C
:1040600071E080E798E00E949917A70170E060E096
:1040700020E180E798E00E94A8176AE971E080E7F4
:1040800098E00E94991780E0DF91CF911F910F91E6
:10409000FF90EF90DF90CF90BF909F908F9008950A
:1040A0001F920F920FB60F9211242F933F934F93AD
:1040B0005F936F937F938F939F93AF93BF93EF9390
:1040C000FF938091B900887F803609F44AC0F0F5EB
:1040D000883209F4A7C018F5803109F49BC0B8F400
:1040E000882309F4F9C0883009F494C0FF91EF9156
:1040F000BF91AF919F918F917F916F915F914F9100
:104100003F912F910F900FBE0F901F9018958831FF
:1041100009F488C0803251F78093390614C0803486
:1041200009F49DC040F48033B9F38833F9F68093E5
:10413000390685ECB0C0803509F485C0883509F4AE
:1041400096C0883499F60E946117D0CF883909F457
:104150008CC038F5883729F050F4883611F0803754
:1041600029F683E080933B061092980257C0883866
:1041700009F47BC0803919F0803809F0B7CF8091FD
:104180009802803208F071C0E091980281E08E0FB1
:10419000809398028091BB00F0E0E858FD4F808347
:1041A0003DC0803B39F0E0F4803A09F479C0883AA8
:1041B00009F09CCF84E080933B0610927502109228
:1041C0007402E0917202F091730209958091740279
:1041D00081110FC081E0809374021092520209C0D5
:1041E000803C09F4A6CF883C09F4A3CF883B09F0B2
:1041F0007DCFE091750281E08E0F80937502F0E033
:10420000EE5AFD4F80818093BB00909175028091A2
:10421000740229C0809116068093BB0085EC8093C0
:10422000BC0064CF9091380680913706981758F5F6
:10423000E091380681E08E0F80933806F0E0E95E69
:10424000F94F8081E9CFE091380681E08E0F8093AD
:1042500038068091BB00F0E0E95EF94F80839091D1
:104260003806809137069817C8F285E8D8CFE091D4
:10427000380681E08E0F809338068091BB00F0E015
:10428000E95EF94F808380913A0681115CCF81E02D
:104290008093150684EA8093BC0010923B0626CFDB
:1042A00085EC8093BC0010923B068091980280328E
:1042B00030F4E0919802F0E0E858FD4F10826091F0
:1042C000980270E0E0917602F091770288E792E040
:1042D0000995109298020ACF1092390634CF1F9296
:1042E0000F920FB60F9211240F900FBE0F901F90D8
:1042F00018951F920F920FB60F9211242F933F9390
:104300008F939F93AF93BF93809123029091240248
:10431000A0912502B09126023091220223E0230FC2
:104320002D3758F50196A11DB11D209322028093CF
:10433000230290932402A0932502B0932602809139
:10434000270290912802A0912902B0912A02019699
:10435000A11DB11D8093270290932802A0932902EA
:10436000B0932A02BF91AF919F918F913F912F916E
:104370000F900FBE0F901F90189526E8230F0296FE
:10438000A11DB11DD2CF1F920F920FB60F92112413
:104390002F933F934F935F936F937F938F939F934D
:1043A000AF93BF93EF93FF93E0911401F091150148
:1043B0000995FF91EF91BF91AF919F918F917F915F
:1043C0006F915F914F913F912F910F900FBE0F9082
:1043D0001F9018951F920F920FB60F9211242F93D2
:1043E0003F934F935F936F937F938F939F93AF937D
:1043F000BF93EF93FF93E0911201F09113010995A0
:10440000FF91EF91BF91AF919F918F917F916F91AC
:104410005F914F913F912F910F900FBE0F901F9082
:1044200018951F920F920FB60F9211242F933F935E
:104430004F935F936F937F938F939F93AF93BF93AC
:10444000EF93FF93E0911001F09111010995FF9115
:10445000EF91BF91AF919F918F917F916F915F91FC
:104460004F913F912F910F900FBE0F901F90189575
:104470001F920F920FB60F9211242F933F934F93D9
:104480005F936F937F938F939F93AF93BF93EF93BC
:10449000FF93E0910E01F0910F010995FF91EF91CB
:1044A000BF91AF919F918F917F916F915F914F914C
:1044B0003F912F910F900FBE0F901F9018951F9254
:1044C0000F920FB60F9211242F933F934F935F9348
:1044D0006F937F938F939F93AF93BF93EF93FF93CC
:1044E000E0910C01F0910D010995FF91EF91BF91C1
:1044F000AF919F918F917F916F915F914F913F917C
:104500002F910F900FBE0F901F9018951F920F9232
:104510000FB60F9211248F939F938091E100909199
:10452000E100937F9093E10083FF0FC01092E900B8
:1045300091E09093EB001092EC0092E39093ED00E9
:104540001092E30198E09093F00082FF22C093E084
:104550009093E9009091F200992319F09AE39093D7
:10456000E8009091E001992341F09091E001915091
:104570009093E001911101C05D9A9091DF01992320
:1045800041F09091DF0191509093DF01911101C0B2
:10459000289A84FF18C08091E2008E7E816080930B
:1045A000E2008091E1008F7E8093E1008091E10143
:1045B0008E7E80618093E1019F918F910F900FBE5D
:1045C0000F901F90189580FFF7CF8091E2008E7EAC
:1045D00080618093E2008091E1008E7E8093E10013
:1045E0008091E1018E7E8160E5CF1F920F920FB620
:1045F0000F921124CF92DF92EF92FF920F931F93AD
:104600002F933F934F935F936F937F938F939F93DA
:10461000AF93BF93EF93FF93CF93DF93CDB7DEB705
:104620006C97DEBFCDBF1092E9008091E80083FF58
:1046300025C068E0CE0145960E940A0C82EF809367
:10464000E8008D8987FF39C09091E80090FFFCCF8A
:10465000982F907609F034C19E894F89588D2F8903
:10466000F88C911131C0803861F58091E20180931E
:10467000F1001092F1008EEF8093E8006C960FB677
:10468000F894DEBF0FBECDBFDF91CF91FF91EF91C8
:10469000BF91AF919F918F917F916F915F914F915A
:1046A0003F912F911F910F91FF90EF90DF90CF904E
:1046B0000F900FBE0F901F9018959EEF9093E800FB
:1046C000C7CF1092F100D5CF913059F48111D3CFDB
:1046D0004130510581F68091E2018D7F8093E201A6
:1046E000CACF933049F48111C6CF4130510519F634
:1046F0008091E2018260F2CF953041F48091E80030
:1047000080FFFCCF20682093E300B5CF963009F0FE
:10471000A9C00B8D1C8D82E01092E9001092DE0181
:104720001092DD01F8122EC01092DC011092DB0114
:104730000E94580C1F8299E09983FA8291E09E832F
:1047400090EA98879AEF99872091DD013091DE01F8
:10475000275F3F4F3C832B838D831092E90010929B
:10476000DE011092DD011093DC010093DB0149E0D2
:1047700050E0BE016F5F7F4F80E00E94CB0A0E9435
:10478000580C79CF1093DC010093DB010E94460C9A
:10479000DC0112960D911C910115110509F4BCC0A4
:1047A000D801ED91FC910480F581E02DBE016B5E96
:1047B0007F4FC8010995009709F0A9C0F80100854D
:1047C0001185EACFF3E0FF120EC08F89882309F428
:1047D00040C0823061F440E86CE08AEC90E00E94D6
:1047E0008430811148CF81E28093EB0047CF813044
:1047F00029F440E867E082EC90E0F1CF833099F74C
:104800000E94460CDC011296ED90FC908E010F5F29
:104810001F4F6801E114F10479F0D701ED91FC918B
:104820000680F781E02DB801C7010995080F111D19
:10483000F701E084F184EECFD8011C92F6010190DB
:104840000020E9F73197BF016C197D0940E0C601EE
:10485000C6CF6CEA70E0FB01449150E080E80E9412
:10486000CB0A09CF973009F4BECF983021F481E00C
:104870008093F10000CF993009F0FDCE837009F0EC
:10488000B2CFE9E1F1E081E031E096E3219122232A
:1048900071F08093E9003093EB00DF0111972C91C8
:1048A0002093EC009093ED008F5F873079F78EE7CF
:1048B0008093EA001092EA008F898093E301DBCEB7
:1048C0008B8D9C8D1092E9001092DE011092DD011B
:1048D0009093DC018093DB010E94460CDC01129670
:1048E0000D911C910115110509F47DCFD801ED91B1
:1048F000FC910190F081E02DBE016B5E7F4FC801FD
:1049000009958111B8CEF80100851185EBCF1816F5
:1049100019060CF4B0CE67CFF1E0FF1253CF60EB75
:1049200070E099CF1F920F920FB60F9211248F93C0
:104930009F93AF93BF938091D7019091D801A0919D
:10494000D901B091DA01892B8A2B8B2B81F19091BF
:10495000D601809100008927809300008091D701C3
:104960009091D801A091D901B091DA0118161906D9
:104970001A061B069CF48091D7019091D801A09152
:10498000D901B091DA010197A109B1098093D7014A
:104990009093D801A093D901B093DA01BF91AF9160
:1049A0009F918F910F900FBE0F901F90189580913F
:1049B00071008D7F809371008091D60190910000ED
:1049C0008095892380930000E9CF1F920F920FB644
:1049D0000F9211242F933F934F935F936F937F9385
:1049E0008F939F93AF93BF93EF93FF9380E798E0EC
:1049F0000E94D90CFF91EF91BF91AF919F918F9140
:104A00007F916F915F914F913F912F910F900FBECA
:104A10000F901F9018951F920F920FB60F921124AE
:104A20002F938F939F93EF93FF93E0918008F091E2
:104A300081088081E0918608F091870882FD1BC083
:104A40009081809189088F5F8F7320918A088217E7
:104A500041F0E0918908F0E0E059F74F958F80939D
:104A60008908FF91EF919F918F912F910F900FBE29
:104A70000F901F9018958081F4CFFC018CE391E09A
:104A8000918380838AE997E09383828314861586D5
:104A900016861786108A118A128A138A148288E071
:104AA00085839CE3978391E09087818784E0838767
:104AB000A1EFB7E090E080E02D913D91232B41F4F0
:104AC000880F991FDC01AF50B84FED93FC93089508
:104AD00001968031910581F70895CF93DF93FC0112
:104AE00084E291E0918380838AE997E093838283D3
:104AF000148211A613A612A615A614A681E081ABF6
:104B0000A4E9B4E080E891E0ED019C011992215004
:104B10003040E1F782819381009789F0EC01C95A16
:104B2000DF4FB0E0A0E029913991232B59F4AA0F6F
:104B3000BB1FA80FB91FA95ABF4FED93FC93DF917C
:104B4000CF9108951196A031B10569F7F8CFCF93B1
:104B5000DF9382E591E090939B0780939A071092F0
:104B6000A30781E08093A4071092A5078CE997E042
:104B70009093A2078093A10710929C0788E08093EE
:104B80009D078CE380939F071092A007EAE9F7E066
:104B900085EE97E0C1E02CE937E01686C787108ADA
:104BA0003587248735968E179F07B9F7109211081D
:104BB00081E18093650686E897E00E943D2582E7C3
:104BC00097E00E943D258EE597E00E943D258AE40E
:104BD00097E00E943D2586E397E00E943D2582E014
:104BE00097E00E946D258EEC96E00E946D258AE983
:104BF00096E00E946D2586E696E00E946D2582E093
:104C000080931608C09317088EE198E090931908D6
:104C10008093180810921B0810921A088CE591E0F6
:104C2000909313088093120881EC80931E0880EC07
:104C300080931F0880E2E0E4F8E0DF01482F1D9236
:104C40004A95E9F7E0E2F8E0DF011D928A95E9F77D
:104C500081E090E090931D0880931C080E94460C10
:104C6000FC01818190911608482F490F5527551F47
:104C7000483051059CF5A281B381109709F522E1D6
:104C800038E0338322832081209314088093150811
:104C900080911708820F808320911808A22FB0916D
:104CA00019088A2F821B8917C8F481813D91C82F6A
:104CB000D0E0C85EDE4F38838F5F8183F2CFD901A9
:104CC00018962D913C91199721153105C1F722E1D4
:104CD00038E019963C932E931897D5CF1092670819
:104CE0001092660888EE93E0A0E0B0E08093680838
:104CF00090936908A0936A08B0936B0828E631E0A6
:104D0000309365082093640810927308109272081B
:104D10008093740890937508A0937608B0937708F1
:104D20002AE731E030937108209370082DEC30E0D1
:104D300030937D0820937C082CEC30E030937F0882
:104D400020937E0828EC30E030938108209380087F
:104D500029EC30E030938308209382082AEC30E07D
:104D600030938508209384082EEC30E03093870838
:104D7000209386081092890810928A0810928B0856
:104D800010928C081092100910920F09809311094B
:104D900090931209A0931309B09314098CE891E041
:104DA00090930E0980930D098FEF9FEF90931A094E
:104DB00080931909DF91CF910895CF93DF9300D0AD
:104DC000CDB7DEB7789484B5826084BD84B5816048
:104DD00084BD85B5826085BD85B5816085BD8091C6
:104DE0006E00816080936E0010928100809181003E
:104DF0008260809381008091810081608093810036
:104E00008091800081608093800080919100826019
:104E100080939100809191008160809391008091B6
:104E200090008160809390008091C10084608093A5
:104E3000C1008091C10082608093C1008091C10057
:104E400081608093C1008091C30081608093C30022
:104E50008091C00082608093C0008091C200816018
:104E60008093C20080917A00846080937A00809160
:104E70007A00826080937A0080917A0081608093CA
:104E80007A0080917A00806880937A001092E30122
:104E90001092E2011092E1018091D700816080932D
:104EA000D70080EA8093D80089B5806189BD89B533
:104EB000826089BD09B400FEFDCF61E070E080E052
:104EC00090E00E9432088091D8008F7C80618093AE
:104ED000D8008091E000807F8093E0008091E10025
:104EE0008E7E8093E1008DE08093E200559A209AB7
:104EF000E0918008F091810882E08083E0917C0855
:104F0000F0917D081082E0917E08F0917F0880E1A9
:104F1000808310928808E0918408F091850886E0EB
:104F20008083E0918208F091830880818061808392
:104F3000E0918208F0918308808188608083E0910D
:104F40008208F0918308808180688083E0918208E4
:104F5000F091830880818F7D808361E081E10E94F0
:104F6000EC0662E083E10E94EC0662E084E10E94CC
:104F7000EC0661E081E10E947F06ECE9F2E080E36B
:104F800091E0DF019C011D9221503040E1F741E0AA
:104F900050E034E126E09AE186E151834083338397
:104FA000278B958F87ABE45BFF4F63E0EC3CF60704
:104FB000A1F783E10E9456068C0184E10E94560607
:104FC000000F111F082B0F5F00932102011135C143
:104FD00061E089E00E94EC0660E089E00E947F06C3
:104FE00010929A0210929B0210924206109264064E
:104FF0000E94AD068BE395E090937302809372025A
:1050000087E495E090937702809376028CE080931A
:10501000B8001092510280EA9FE0A0E0B0E08093D7
:105020003D0690933E06A0933F06B093400681E074
:1050300080933C0660E089E00E947F0664E170E0B6
:1050400080E090E00E94320861E089E00E947F06E3
:1050500064E170E080E090E00E9432080DEF11E022
:105060007CE1E72E72E0F72E269A0E94BC02DFB6A2
:10507000F8948091E401811125C0F8018491F70131
:105080009491E82FF0E0EE0FFF1FEE53FE4FA59135
:10509000B4918C91982321F461E081E10E947F0614
:1050A00061E081E10E94EC068CB580618CBD8CB51D
:1050B00080648CBD61E08FE00E94EC0661E080E1DD
:1050C0000E94EC068091E4018F5F8093E401DFBED3
:1050D000209A289A259868E188E80E94070460E2EF
:1050E00088E70E94070460E088E70E940704D12C4B
:1050F000C12C88E60E9457042FEFC21AD20A80FF03
:105100007CC061EC88ED0E94070460E680ED0E949F
:10511000070464E088EE0E94070488EE0E945704AA
:1051200082FFFBCF0E946B0460E288EC0E940704C0
:1051300061E080E80E94070411E001E0009341066D
:1051400010936306109242061092640641E050E00C
:105150006FE171E084E698E00E94940581E00E948E
:10516000420764E670E080E090E00E9432081F5F32
:10517000143021F7E9EEF1E0ACE9B2E088E040E07C
:1051800050E860E070E0D5968C93D59745835683C0
:10519000678370874187528763877487A45BBF4F9B
:1051A0003D9632E0ED31F30771F790E080E00E9428
:1051B0004E318B3AC1F581E090E00E944E318093F0
:1051C000160182E090E00E944E3180931701809199
:1051D00021028111FCC61D9B0E949B048091140634
:1051E000813009F4C1C008F4C3C0823009F46AC038
:1051F000833009F4C5C0D12C7CC0FFEFCF16DF0689
:1052000009F077CF81E10E94560661E0892B09F011
:1052100060E081E10E947F0664EF71E080E090E051
:105220000E94320821CF6BEA90E080E00E94563164
:1052300086E191E00E94DD0ECACF83E10E9456060E
:105240008C0184E10E945606000F111F082B10925A
:105250009A0210929B0210924206109264060E94DB
:10526000AD068BE395E0909373028093720287E41E
:1052700095E090937702809376020F5F000F009382
:10528000BA008CE08093B80080EF95E090935002D4
:1052900080934F0284E698E090934E0280934D02F3
:1052A0001092510280EA9FE0A0E0B0E080933D06BA
:1052B00090933E06A0933F06B093400681E0809312
:1052C0003C0685CFD12C80916506807F803189F4A2
:1052D0000E94240968537F4F8F4F9F4F6093E501D1
:1052E0007093E6018093E7019093E80180E2809358
:1052F000650601EF17E07801D7018D919D917D0141
:10530000009739F0DC01ED91FC910480F581E02DEE
:105310000995B1E1EB16B8E0FB0671F780916506DF
:10532000803409F45EC178F5803209F444C18033D9
:1053300009F451C1813109F044C010921108F801FB
:10534000819191918F01009739F0DC01ED91FC91F1
:105350000280F381E02D0995B8E001311B0779F750
:1053600082E1809365062DC083E18093650643CF7B
:1053700080916506807F803109F43DCF81E1F5CFD2
:10538000DD24D394A0CF813509F43AC1803809F4E3
:105390004AC18035B1F488EC0E94570486FF11C0E1
:1053A00081E5809365060E9424096C5E7F4F8F4FD4
:1053B0009F4F6093E5017093E6018093E70190931E
:1053C000E8010E949B040E946B043CECE32E33E056
:1053D000F32E49EE442E41E0542E0CE912E0312C1C
:1053E000212CF7018181D801811176C61D921C9272
:1053F00062E070E0C7010E94D901882309F427C147
:10540000E1E0F0E0D801ED93FC9388E0D7019396BA
:105410008C93F801808191818130910509F0F8C168
:1054200088E03496DF011D928A95E9F7F7018085BF
:10543000918580FF0AC0D80114962D913C91159753
:10544000216015963C932E93149781FF06C0F801B6
:105450002481358122603583248382FF0AC0D801EC
:1054600014962D913C911597246015963C932E939C
:10547000149783FF06C0F8012481358128603583A5
:10548000248384FF0AC0D80114962D913C9115976E
:10549000206115963C932E93149785FF06C0F80162
:1054A0002481358120623583248386FF0AC0D80198
:1054B00014962D913C911597206415963C932E934C
:1054C00014979C012078332787FF06C0F801448198
:1054D000558140685583448390FF04C04FEFD80145
:1054E0001B964C9391FF03C04FEFF801428794FF46
:1054F00004C04FEFD80116964C9395FF03C04FEFB1
:10550000F801478396FF04C04FEFD80118964C93DB
:1055100097FF03C08FEFF8018187D7011C968D910B
:105520009C911D97F801978786871E968D919C9177
:105530001F97918B808B50968D919C915197938B57
:10554000828B52964D915C915397558B448B1A9652
:105550006C911A9764871B966C911B97658768E01E
:1055600093966C939397618D56966C935697638D33
:1055700057966C93D2016C9161FF04C04095509591
:10558000558B448B60FF05C080959095F801938BF7
:10559000828B232B09F48AC061E070E0C7010E946E
:1055A000BD01882309F462C0D2018C9181FD73C0D2
:1055B00082608C9362C00E9424090091E5011091E1
:1055C000E6012091E7013091E801601B710B820B2D
:1055D000930B97FDF6CE61E088EE0E94070480E40D
:1055E000C0CE88EE0E94570480FDEBCE88ED0E946D
:1055F0005704682F686088ED0E94070480E5B1CEEB
:105600000E9424090091E5011091E6012091E70133
:105610003091E801601B710B820B930B97FDD1CE8B
:1056200080E8809365062D2D40E060E08AE997E0F0
:105630000E949111882349F0823D09F4C2CE843E34
:1056400011F080EA8ECE80E88CCE80E98ACE64E0CC
:1056500070E0C7010E94D901882309F4DACE82E004
:1056600090E0F8019183808380E1D0CE62E070E029
:10567000C7010E94BD01811197CF68E070E0C701AA
:105680000E94BD01882359F0F201808180FFBDC0D6
:105690008E7F80830BC08D7FF2018083EECF64E02C
:1056A00070E0C7010E94BD018111EECF21143104C9
:1056B00009F47DC4D8016D917C916130710509F4C4
:1056C00016C56230710509F004C44801BCE18B0EB7
:1056D000911C5801E6E3AE0EB11C2AE1722E36E1B0
:1056E000D32EC22C81E08093410620926306109253
:1056F000420610926406606F84E698E00E94C1053D
:105700008114910449F0772039F0472D50E0B4011D
:1057100084E698E00E94940581E00E944207A1146B
:10572000B10409F439C4DD2009F436C40E941D0710
:105730003B014C0180913B068111D2C381E08093F3
:105740003B0680933A069FEF9093390610923806F5
:105750009D0D909337068093160680911606CC0C0B
:10576000C82AC092160680911506813009F0F0C350
:10577000109215060E941D073B014C0180911606F0
:105780008093BB0080913D0690913E06A0913F061C
:10579000B0914006892B8A2B8B2BA1F00E941D070C
:1057A00020913D0630913E0640913F0650914006C3
:1057B000661977098809990926173707480759078D
:1057C00008F4AFC38091BC0083FDD8CF85EC8093F3
:1057D000BC000E941D073B014C0180913B068130BB
:1057E00009F4B8C380913806CD2C8D1510F4C09003
:1057F0003806A7E1B6E0EDE2F2E080E08C1509F4AE
:1058000095C39D9191938F5FF9CF816080834ECF37
:10581000029709F04BCF178E168E11A210A282A10B
:1058200093A18C7F93A382A3F7014085518585E9DD
:1058300091E026E2229DB001239D700D1124FC0110
:105840002591349124233523232BA1F0FC0132969A
:10585000A591B491FC013496E491E60FF72FF11D68
:10586000EE0FFF1FE654FD4F208131812A2B3B2B89
:10587000318320830596F1E0823C9F0701F736E3F0
:10588000C32E31E0D32E86E2829D5001839DB00C61
:105890001124F60165917491C7010E94D9018823F2
:1058A000A1F0F601329685919491F6013496E49137
:1058B000EA0DFB2DF11DEE0FFF1FE654FD4F208179
:1058C0003181822B932B9183808325E0C20ED11CE2
:1058D00085E991E08C159D05E1F6BDE1CB2EB1E0A7
:1058E000DB2E86E2829D5001839DB00C1124F601CF
:1058F00065917491C7010E94F5018823A1F0F6011A
:10590000329685919491F6013496E491EA0DFB2D3F
:10591000F11DEE0FFF1FE654FD4F208131818227DC
:1059200093279183808395E0C90ED11CA6E3B1E053
:10593000AC15BD05E1F6F7016084718476FE29C0DF
:10594000D801DF968C91DF978F7049F090968D91FA
:105950009C919197826091969C938E939097F80179
:10596000EC5BFF4F80818F7031F0F80180A191A135
:10597000986091A380A3F80186AD807F51F0D80193
:1059800090968D919C919197816091969C938E9326
:10599000909768E070E0C7010E94D901811174C13D
:1059A00065FC72C164E070E0C7010E94D9018823E0
:1059B00009F4CDC161E070E0C7010E94F5018823C0
:1059C00089F0D80192968D919C9193978C7F9396B4
:1059D0009C938E939297892B09F413C293961C92F1
:1059E0001E929297D7011A968C911A97F80116A6D3
:1059F00087A71B968C9112AA83AB61E770E0C70161
:105A00000E94D901882309F402C280E09FEFD801E7
:105A1000D1969C938E93D09768E070E0C7010E9466
:105A2000D901F701D08481110AC0D5FC08C080E0FB
:105A300090E8D2FC06C08FEF9FE7D3FC02C090E055
:105A400080E0D80199969C938E939897F70184856E
:105A500095859B969C938E939A978685978580953E
:105A600090959D969C938E939C9760897189072E43
:105A7000000C880B990B4B015C0197FF07C0882431
:105A800099245401861A970AA80AB90AFDE48F16C8
:105A9000FDE19F06A104B104ACF020911601309104
:105AA000170150E040E00E946431F2018581968147
:105AB000A781B085820F931FA41FB51F858396838E
:105AC000A783B087D70152966D917C91072E000C69
:105AD000880B990B4B015C0197FF07C08824992420
